{
  "_format": "hh-sol-artifact-1",
  "contractName": "PayStream",
  "sourceName": "contracts/PayStream.sol",
  "abi": [
    {
      "inputs": [
        {
          "internalType": "contract IERC20",
          "name": "_token",
          "type": "address"
        },
        {
          "internalType": "contract TaxVault",
          "name": "_taxVault",
          "type": "address"
        },
        {
          "internalType": "uint256",
          "name": "_taxBasisPoints",
          "type": "uint256"
        }
      ],
      "stateMutability": "nonpayable",
      "type": "constructor"
    },
    {
      "inputs": [],
      "name": "AccessControlBadConfirmation",
      "type": "error"
    },
    {
      "inputs": [
        {
          "internalType": "address",
          "name": "account",
          "type": "address"
        },
        {
          "internalType": "bytes32",
          "name": "neededRole",
          "type": "bytes32"
        }
      ],
      "name": "AccessControlUnauthorizedAccount",
      "type": "error"
    },
    {
      "inputs": [],
      "name": "ReentrancyGuardReentrantCall",
      "type": "error"
    },
    {
      "inputs": [
        {
          "internalType": "address",
          "name": "token",
          "type": "address"
        }
      ],
      "name": "SafeERC20FailedOperation",
      "type": "error"
    },
    {
      "anonymous": false,
      "inputs": [
        {
          "indexed": true,
          "internalType": "address",
          "name": "funder",
          "type": "address"
        },
        {
          "indexed": false,
          "internalType": "uint256",
          "name": "amount",
          "type": "uint256"
        }
      ],
      "name": "ContractFunded",
      "type": "event"
    },
    {
      "anonymous": false,
      "inputs": [
        {
          "indexed": true,
          "internalType": "bytes32",
          "name": "role",
          "type": "bytes32"
        },
        {
          "indexed": true,
          "internalType": "bytes32",
          "name": "previousAdminRole",
          "type": "bytes32"
        },
        {
          "indexed": true,
          "internalType": "bytes32",
          "name": "newAdminRole",
          "type": "bytes32"
        }
      ],
      "name": "RoleAdminChanged",
      "type": "event"
    },
    {
      "anonymous": false,
      "inputs": [
        {
          "indexed": true,
          "internalType": "bytes32",
          "name": "role",
          "type": "bytes32"
        },
        {
          "indexed": true,
          "internalType": "address",
          "name": "account",
          "type": "address"
        },
        {
          "indexed": true,
          "internalType": "address",
          "name": "sender",
          "type": "address"
        }
      ],
      "name": "RoleGranted",
      "type": "event"
    },
    {
      "anonymous": false,
      "inputs": [
        {
          "indexed": true,
          "internalType": "bytes32",
          "name": "role",
          "type": "bytes32"
        },
        {
          "indexed": true,
          "internalType": "address",
          "name": "account",
          "type": "address"
        },
        {
          "indexed": true,
          "internalType": "address",
          "name": "sender",
          "type": "address"
        }
      ],
      "name": "RoleRevoked",
      "type": "event"
    },
    {
      "anonymous": false,
      "inputs": [
        {
          "indexed": true,
          "internalType": "uint256",
          "name": "streamId",
          "type": "uint256"
        }
      ],
      "name": "StreamCancelled",
      "type": "event"
    },
    {
      "anonymous": false,
      "inputs": [
        {
          "indexed": true,
          "internalType": "uint256",
          "name": "streamId",
          "type": "uint256"
        },
        {
          "indexed": true,
          "internalType": "address",
          "name": "employer",
          "type": "address"
        },
        {
          "indexed": true,
          "internalType": "address",
          "name": "employee",
          "type": "address"
        },
        {
          "indexed": false,
          "internalType": "uint256",
          "name": "ratePerSecond",
          "type": "uint256"
        }
      ],
      "name": "StreamCreated",
      "type": "event"
    },
    {
      "anonymous": false,
      "inputs": [
        {
          "indexed": true,
          "internalType": "uint256",
          "name": "streamId",
          "type": "uint256"
        }
      ],
      "name": "StreamPaused",
      "type": "event"
    },
    {
      "anonymous": false,
      "inputs": [
        {
          "indexed": true,
          "internalType": "uint256",
          "name": "requestId",
          "type": "uint256"
        },
        {
          "indexed": true,
          "internalType": "uint256",
          "name": "streamId",
          "type": "uint256"
        },
        {
          "indexed": true,
          "internalType": "address",
          "name": "employee",
          "type": "address"
        }
      ],
      "name": "StreamRequestApproved",
      "type": "event"
    },
    {
      "anonymous": false,
      "inputs": [
        {
          "indexed": true,
          "internalType": "uint256",
          "name": "requestId",
          "type": "uint256"
        }
      ],
      "name": "StreamRequestRejected",
      "type": "event"
    },
    {
      "anonymous": false,
      "inputs": [
        {
          "indexed": true,
          "internalType": "uint256",
          "name": "requestId",
          "type": "uint256"
        },
        {
          "indexed": true,
          "internalType": "address",
          "name": "employee",
          "type": "address"
        },
        {
          "indexed": false,
          "internalType": "uint256",
          "name": "ratePerSecond",
          "type": "uint256"
        }
      ],
      "name": "StreamRequested",
      "type": "event"
    },
    {
      "anonymous": false,
      "inputs": [
        {
          "indexed": true,
          "internalType": "uint256",
          "name": "streamId",
          "type": "uint256"
        }
      ],
      "name": "StreamResumed",
      "type": "event"
    },
    {
      "anonymous": false,
      "inputs": [
        {
          "indexed": false,
          "internalType": "uint256",
          "name": "oldRate",
          "type": "uint256"
        },
        {
          "indexed": false,
          "internalType": "uint256",
          "name": "newRate",
          "type": "uint256"
        }
      ],
      "name": "TaxRateUpdated",
      "type": "event"
    },
    {
      "anonymous": false,
      "inputs": [
        {
          "indexed": true,
          "internalType": "uint256",
          "name": "streamId",
          "type": "uint256"
        },
        {
          "indexed": true,
          "internalType": "address",
          "name": "employee",
          "type": "address"
        },
        {
          "indexed": false,
          "internalType": "uint256",
          "name": "employeeAmount",
          "type": "uint256"
        },
        {
          "indexed": false,
          "internalType": "uint256",
          "name": "taxAmount",
          "type": "uint256"
        }
      ],
      "name": "Withdrawal",
      "type": "event"
    },
    {
      "inputs": [],
      "name": "DEFAULT_ADMIN_ROLE",
      "outputs": [
        {
          "internalType": "bytes32",
          "name": "",
          "type": "bytes32"
        }
      ],
      "stateMutability": "view",
      "type": "function"
    },
    {
      "inputs": [],
      "name": "HR_ROLE",
      "outputs": [
        {
          "internalType": "bytes32",
          "name": "",
          "type": "bytes32"
        }
      ],
      "stateMutability": "view",
      "type": "function"
    },
    {
      "inputs": [
        {
          "internalType": "uint256",
          "name": "requestId",
          "type": "uint256"
        }
      ],
      "name": "approveStreamRequest",
      "outputs": [
        {
          "internalType": "uint256",
          "name": "streamId",
          "type": "uint256"
        }
      ],
      "stateMutability": "nonpayable",
      "type": "function"
    },
    {
      "inputs": [
        {
          "internalType": "uint256",
          "name": "streamId",
          "type": "uint256"
        }
      ],
      "name": "calculateAccrued",
      "outputs": [
        {
          "internalType": "uint256",
          "name": "",
          "type": "uint256"
        }
      ],
      "stateMutability": "view",
      "type": "function"
    },
    {
      "inputs": [
        {
          "internalType": "uint256",
          "name": "streamId",
          "type": "uint256"
        }
      ],
      "name": "cancelStream",
      "outputs": [],
      "stateMutability": "nonpayable",
      "type": "function"
    },
    {
      "inputs": [
        {
          "internalType": "address",
          "name": "employee",
          "type": "address"
        },
        {
          "internalType": "uint256",
          "name": "ratePerSecond",
          "type": "uint256"
        }
      ],
      "name": "createStream",
      "outputs": [
        {
          "internalType": "uint256",
          "name": "streamId",
          "type": "uint256"
        }
      ],
      "stateMutability": "nonpayable",
      "type": "function"
    },
    {
      "inputs": [
        {
          "internalType": "uint256",
          "name": "amount",
          "type": "uint256"
        }
      ],
      "name": "fundContract",
      "outputs": [],
      "stateMutability": "nonpayable",
      "type": "function"
    },
    {
      "inputs": [],
      "name": "getPendingRequests",
      "outputs": [
        {
          "internalType": "uint256[]",
          "name": "requestIds",
          "type": "uint256[]"
        },
        {
          "components": [
            {
              "internalType": "address",
              "name": "employee",
              "type": "address"
            },
            {
              "internalType": "uint256",
              "name": "ratePerSecond",
              "type": "uint256"
            },
            {
              "internalType": "uint256",
              "name": "timestamp",
              "type": "uint256"
            },
            {
              "internalType": "bool",
              "name": "processed",
              "type": "bool"
            }
          ],
          "internalType": "struct PayStream.StreamRequest[]",
          "name": "requests",
          "type": "tuple[]"
        }
      ],
      "stateMutability": "view",
      "type": "function"
    },
    {
      "inputs": [
        {
          "internalType": "uint256",
          "name": "requestId",
          "type": "uint256"
        }
      ],
      "name": "getRequest",
      "outputs": [
        {
          "components": [
            {
              "internalType": "address",
              "name": "employee",
              "type": "address"
            },
            {
              "internalType": "uint256",
              "name": "ratePerSecond",
              "type": "uint256"
            },
            {
              "internalType": "uint256",
              "name": "timestamp",
              "type": "uint256"
            },
            {
              "internalType": "bool",
              "name": "processed",
              "type": "bool"
            }
          ],
          "internalType": "struct PayStream.StreamRequest",
          "name": "",
          "type": "tuple"
        }
      ],
      "stateMutability": "view",
      "type": "function"
    },
    {
      "inputs": [],
      "name": "getRequestCount",
      "outputs": [
        {
          "internalType": "uint256",
          "name": "",
          "type": "uint256"
        }
      ],
      "stateMutability": "view",
      "type": "function"
    },
    {
      "inputs": [
        {
          "internalType": "bytes32",
          "name": "role",
          "type": "bytes32"
        }
      ],
      "name": "getRoleAdmin",
      "outputs": [
        {
          "internalType": "bytes32",
          "name": "",
          "type": "bytes32"
        }
      ],
      "stateMutability": "view",
      "type": "function"
    },
    {
      "inputs": [
        {
          "internalType": "uint256",
          "name": "streamId",
          "type": "uint256"
        }
      ],
      "name": "getStream",
      "outputs": [
        {
          "components": [
            {
              "internalType": "address",
              "name": "employer",
              "type": "address"
            },
            {
              "internalType": "address",
              "name": "employee",
              "type": "address"
            },
            {
              "internalType": "uint256",
              "name": "ratePerSecond",
              "type": "uint256"
            },
            {
              "internalType": "uint256",
              "name": "lastClaimTime",
              "type": "uint256"
            },
            {
              "internalType": "bool",
              "name": "active",
              "type": "bool"
            }
          ],
          "internalType": "struct PayStream.Stream",
          "name": "",
          "type": "tuple"
        }
      ],
      "stateMutability": "view",
      "type": "function"
    },
    {
      "inputs": [],
      "name": "getStreamCount",
      "outputs": [
        {
          "internalType": "uint256",
          "name": "",
          "type": "uint256"
        }
      ],
      "stateMutability": "view",
      "type": "function"
    },
    {
      "inputs": [],
      "name": "getTreasuryBalance",
      "outputs": [
        {
          "internalType": "uint256",
          "name": "",
          "type": "uint256"
        }
      ],
      "stateMutability": "view",
      "type": "function"
    },
    {
      "inputs": [
        {
          "internalType": "bytes32",
          "name": "role",
          "type": "bytes32"
        },
        {
          "internalType": "address",
          "name": "account",
          "type": "address"
        }
      ],
      "name": "grantRole",
      "outputs": [],
      "stateMutability": "nonpayable",
      "type": "function"
    },
    {
      "inputs": [
        {
          "internalType": "bytes32",
          "name": "role",
          "type": "bytes32"
        },
        {
          "internalType": "address",
          "name": "account",
          "type": "address"
        }
      ],
      "name": "hasRole",
      "outputs": [
        {
          "internalType": "bool",
          "name": "",
          "type": "bool"
        }
      ],
      "stateMutability": "view",
      "type": "function"
    },
    {
      "inputs": [
        {
          "internalType": "uint256",
          "name": "streamId",
          "type": "uint256"
        }
      ],
      "name": "pauseStream",
      "outputs": [],
      "stateMutability": "nonpayable",
      "type": "function"
    },
    {
      "inputs": [
        {
          "internalType": "uint256",
          "name": "requestId",
          "type": "uint256"
        }
      ],
      "name": "rejectStreamRequest",
      "outputs": [],
      "stateMutability": "nonpayable",
      "type": "function"
    },
    {
      "inputs": [
        {
          "internalType": "bytes32",
          "name": "role",
          "type": "bytes32"
        },
        {
          "internalType": "address",
          "name": "callerConfirmation",
          "type": "address"
        }
      ],
      "name": "renounceRole",
      "outputs": [],
      "stateMutability": "nonpayable",
      "type": "function"
    },
    {
      "inputs": [
        {
          "internalType": "uint256",
          "name": "ratePerSecond",
          "type": "uint256"
        }
      ],
      "name": "requestStreamStart",
      "outputs": [
        {
          "internalType": "uint256",
          "name": "requestId",
          "type": "uint256"
        }
      ],
      "stateMutability": "nonpayable",
      "type": "function"
    },
    {
      "inputs": [
        {
          "internalType": "uint256",
          "name": "streamId",
          "type": "uint256"
        }
      ],
      "name": "resumeStream",
      "outputs": [],
      "stateMutability": "nonpayable",
      "type": "function"
    },
    {
      "inputs": [
        {
          "internalType": "bytes32",
          "name": "role",
          "type": "bytes32"
        },
        {
          "internalType": "address",
          "name": "account",
          "type": "address"
        }
      ],
      "name": "revokeRole",
      "outputs": [],
      "stateMutability": "nonpayable",
      "type": "function"
    },
    {
      "inputs": [
        {
          "internalType": "uint256",
          "name": "newTaxBasisPoints",
          "type": "uint256"
        }
      ],
      "name": "setTaxRate",
      "outputs": [],
      "stateMutability": "nonpayable",
      "type": "function"
    },
    {
      "inputs": [
        {
          "internalType": "uint256",
          "name": "",
          "type": "uint256"
        }
      ],
      "name": "streamRequests",
      "outputs": [
        {
          "internalType": "address",
          "name": "employee",
          "type": "address"
        },
        {
          "internalType": "uint256",
          "name": "ratePerSecond",
          "type": "uint256"
        },
        {
          "internalType": "uint256",
          "name": "timestamp",
          "type": "uint256"
        },
        {
          "internalType": "bool",
          "name": "processed",
          "type": "bool"
        }
      ],
      "stateMutability": "view",
      "type": "function"
    },
    {
      "inputs": [
        {
          "internalType": "uint256",
          "name": "",
          "type": "uint256"
        }
      ],
      "name": "streams",
      "outputs": [
        {
          "internalType": "address",
          "name": "employer",
          "type": "address"
        },
        {
          "internalType": "address",
          "name": "employee",
          "type": "address"
        },
        {
          "internalType": "uint256",
          "name": "ratePerSecond",
          "type": "uint256"
        },
        {
          "internalType": "uint256",
          "name": "lastClaimTime",
          "type": "uint256"
        },
        {
          "internalType": "bool",
          "name": "active",
          "type": "bool"
        }
      ],
      "stateMutability": "view",
      "type": "function"
    },
    {
      "inputs": [
        {
          "internalType": "bytes4",
          "name": "interfaceId",
          "type": "bytes4"
        }
      ],
      "name": "supportsInterface",
      "outputs": [
        {
          "internalType": "bool",
          "name": "",
          "type": "bool"
        }
      ],
      "stateMutability": "view",
      "type": "function"
    },
    {
      "inputs": [],
      "name": "taxBasisPoints",
      "outputs": [
        {
          "internalType": "uint256",
          "name": "",
          "type": "uint256"
        }
      ],
      "stateMutability": "view",
      "type": "function"
    },
    {
      "inputs": [],
      "name": "taxVault",
      "outputs": [
        {
          "internalType": "contract TaxVault",
          "name": "",
          "type": "address"
        }
      ],
      "stateMutability": "view",
      "type": "function"
    },
    {
      "inputs": [],
      "name": "token",
      "outputs": [
        {
          "internalType": "contract IERC20",
          "name": "",
          "type": "address"
        }
      ],
      "stateMutability": "view",
      "type": "function"
    },
    {
      "inputs": [
        {
          "internalType": "uint256",
          "name": "streamId",
          "type": "uint256"
        }
      ],
      "name": "withdraw",
      "outputs": [],
      "stateMutability": "nonpayable",
      "type": "function"
    }
  ],
  "bytecode": "0x60c06040523480156200001157600080fd5b50604051620023a9380380620023a9833981016040819052620000349162000264565b600180556001600160a01b038316620000945760405162461bcd60e51b815260206004820152601560248201527f50617953747265616d3a207a65726f20746f6b656e000000000000000000000060448201526064015b60405180910390fd5b6001600160a01b038216620000ec5760405162461bcd60e51b815260206004820152601560248201527f50617953747265616d3a207a65726f207661756c74000000000000000000000060448201526064016200008b565b612710811115620001405760405162461bcd60e51b815260206004820152601560248201527f50617953747265616d3a20746178203e2031303025000000000000000000000060448201526064016200008b565b6001600160a01b03808416608052821660a0526002819055620001656000336200019c565b50620001927ffd70517941c75212b0f9013e45c47a37d6d983c5304288c7af285f2ea40cbba7336200019c565b50505050620002ac565b6000828152602081815260408083206001600160a01b038516845290915281205460ff1662000241576000838152602081815260408083206001600160a01b03861684529091529020805460ff19166001179055620001f83390565b6001600160a01b0316826001600160a01b0316847f2f8788117e7eff1d82e926ec794901d17c78024a50270940304540a733656f0d60405160405180910390a450600162000245565b5060005b92915050565b6001600160a01b03811681146200026157600080fd5b50565b6000806000606084860312156200027a57600080fd5b835162000287816200024b565b60208501519093506200029a816200024b565b80925050604084015190509250925092565b60805160a0516120ad620002fc6000396000818161048f015281816118b801526118f30152600081816104f601528181610a1c015281816112510152818161185a015261189601526120ad6000f3fe608060405234801561001057600080fd5b50600436106101da5760003560e01c806380a1f71211610104578063c58343ef116100a2578063e2ad37b011610071578063e2ad37b01461048a578063f3c6a198146104c9578063fb6a984e146104de578063fc0c546a146104f157600080fd5b8063c58343ef14610431578063c6d69a3014610451578063d547741f14610464578063dfe579db1461047757600080fd5b80639b5655dc116100de5780639b5655dc14610406578063a217fddf1461040e578063ac5a656b14610416578063c0f220841461042957600080fd5b806380a1f7121461037d578063894e9a0d1461039357806391d14854146103f357600080fd5b80633519a2f81161017c57806364d60d911161014b57806364d60d91146103065780636db9241b1461034e578063746ff13d146103615780637a210a2b1461037457600080fd5b80633519a2f8146102c557806336568abe146102d85780633df7fb8c146102eb5780633fad1834146102fe57600080fd5b80631f1b32d4116101b85780631f1b32d41461023b578063248a9ca31461027a5780632e1a7d4d1461029d5780632f2ff15d146102b257600080fd5b806301ffc9a7146101df578063071569fc146102075780631594ae4114610228575b600080fd5b6101f26101ed366004611d44565b610518565b60405190151581526020015b60405180910390f35b61021a610215366004611d6e565b61054f565b6040519081526020016101fe565b61021a610236366004611d6e565b6105e9565b61024e610249366004611d6e565b61083a565b604080516001600160a01b039095168552602085019390935291830152151560608201526080016101fe565b61021a610288366004611d6e565b60009081526020819052604090206001015490565b6102b06102ab366004611d6e565b610881565b005b6102b06102c0366004611da3565b61099b565b6102b06102d3366004611d6e565b6109c6565b6102b06102e6366004611da3565b610a7c565b61021a6102f9366004611dcf565b610ab4565b60045461021a565b610319610314366004611d6e565b610cea565b604080516001600160a01b0396871681529590941660208601529284019190915260608301521515608082015260a0016101fe565b6102b061035c366004611d6e565b610d3a565b6102b061036f366004611d6e565b610e37565b61021a60025481565b610385610f34565b6040516101fe929190611df9565b6103a66103a1366004611d6e565b61114b565b6040516101fe919081516001600160a01b03908116825260208084015190911690820152604080830151908201526060808301519082015260809182015115159181019190915260a00190565b6101f2610401366004611da3565b611210565b61021a611239565b61021a600081565b61021a610424366004611d6e565b6112c9565b60035461021a565b61044461043f366004611d6e565b611447565b6040516101fe9190611ea7565b6102b061045f366004611d6e565b6114f4565b6102b0610472366004611da3565b61158f565b6102b0610485366004611d6e565b6115b4565b6104b17f000000000000000000000000000000000000000000000000000000000000000081565b6040516001600160a01b0390911681526020016101fe565b61021a60008051602061205883398151915281565b6102b06104ec366004611d6e565b611679565b6104b17f000000000000000000000000000000000000000000000000000000000000000081565b60006001600160e01b03198216637965db0b60e01b148061054957506301ffc9a760e01b6001600160e01b03198316145b92915050565b6003546000908290811061057e5760405162461bcd60e51b815260040161057590611edd565b60405180910390fd5b60006003848154811061059357610593611f12565b60009182526020909120600590910201600481015490915060ff166105bc5760009250506105e3565b60008160030154426105ce9190611f3e565b90506105de826002015482611777565b935050505b50919050565b60006000805160206120588339815191526106038161178a565b60045483106106245760405162461bcd60e51b815260040161057590611f51565b60006004848154811061063957610639611f12565b60009182526020909120600490910201600381015490915060ff16156106715760405162461bcd60e51b815260040161057590611f92565b6003808201805460ff19908116600190811790925582546040805160a08101825233815286546001600160a01b0390811660208301908152888701548385019081524260608501908152608085018981529887018a556000998a529351600587027fc2575a0e9e593c00f959f8c92f12db2869c3395a3b0502d05e2516446f71f85b810180549286166001600160a01b031993841617905592517fc2575a0e9e593c00f959f8c92f12db2869c3395a3b0502d05e2516446f71f85c8401805491861691909216179055517fc2575a0e9e593c00f959f8c92f12db2869c3395a3b0502d05e2516446f71f85d82015591517fc2575a0e9e593c00f959f8c92f12db2869c3395a3b0502d05e2516446f71f85e83015594517fc2575a0e9e593c00f959f8c92f12db2869c3395a3b0502d05e2516446f71f85f9091018054911515919094161790925584549151909650911691859187917f722e3b1efc8e1913fd437c5d1f8919afd088bbe6b0f4a9c3f55291aa7949675991a4805460018201546040519081526001600160a01b0390911690339085907f4396d7c3edc1447dac8dd2b7143af95840c926a210524a0d3198012c7fdf37c79060200160405180910390a45050919050565b6004818154811061084a57600080fd5b600091825260209091206004909102018054600182015460028301546003909301546001600160a01b039092169350919060ff1684565b610889611794565b600354819081106108ac5760405162461bcd60e51b815260040161057590611edd565b6000600383815481106108c1576108c1611f12565b6000918252602090912060059091020160018101549091506001600160a01b031633146109305760405162461bcd60e51b815260206004820152601a60248201527f50617953747265616d3a206e6f7420796f75722073747265616d0000000000006044820152606401610575565b600481015460ff166109845760405162461bcd60e51b815260206004820152601a60248201527f50617953747265616d3a2073747265616d20696e6163746976650000000000006044820152606401610575565b61098d836117be565b505061099860018055565b50565b6000828152602081905260409020600101546109b68161178a565b6109c083836119ac565b50505050565b60008111610a0f5760405162461bcd60e51b815260206004820152601660248201527514185e54dd1c99585b4e881e995c9bc8185b5bdd5b9d60521b6044820152606401610575565b610a446001600160a01b037f000000000000000000000000000000000000000000000000000000000000000016333084611a3e565b60405181815233907f0939f6f4877faf071412e527bc4c6d0bd65ad077e52b57334f7765265647a7f19060200160405180910390a250565b6001600160a01b0381163314610aa55760405163334bd91960e11b815260040160405180910390fd5b610aaf8282611aa5565b505050565b6000600080516020612058833981519152610ace8161178a565b6001600160a01b038416610b245760405162461bcd60e51b815260206004820152601860248201527f50617953747265616d3a207a65726f20656d706c6f79656500000000000000006044820152606401610575565b60008311610b6b5760405162461bcd60e51b815260206004820152601460248201527350617953747265616d3a207a65726f207261746560601b6044820152606401610575565b600380546040805160a081018252338082526001600160a01b03898116602084018181528486018b81524260608701908152600160808801818152908a018b5560009a909a529551600589027fc2575a0e9e593c00f959f8c92f12db2869c3395a3b0502d05e2516446f71f85b810180549287166001600160a01b031993841617905592517fc2575a0e9e593c00f959f8c92f12db2869c3395a3b0502d05e2516446f71f85c840180549190961691161790935591517fc2575a0e9e593c00f959f8c92f12db2869c3395a3b0502d05e2516446f71f85d83015592517fc2575a0e9e593c00f959f8c92f12db2869c3395a3b0502d05e2516446f71f85e82015594517fc2575a0e9e593c00f959f8c92f12db2869c3395a3b0502d05e2516446f71f85f909501805495151560ff19909616959095179094559051919450919084907f4396d7c3edc1447dac8dd2b7143af95840c926a210524a0d3198012c7fdf37c790610cdb9088815260200190565b60405180910390a45092915050565b60038181548110610cfa57600080fd5b6000918252602090912060059091020180546001820154600283015460038401546004909401546001600160a01b03938416955091909216929060ff1685565b600080516020612058833981519152610d528161178a565b60035482908110610d755760405162461bcd60e51b815260040161057590611edd565b600060038481548110610d8a57610d8a611f12565b60009182526020909120600590910201600481015490915060ff16610df15760405162461bcd60e51b815260206004820152601b60248201527f50617953747265616d3a20616c726561647920696e61637469766500000000006044820152606401610575565b610dfa846117be565b60048101805460ff1916905560405184907f75b8c91e46f219f2164d6bce576e7cebd2d3ff8749726009fcafdf04e2e1eb7b90600090a250505050565b600080516020612058833981519152610e4f8161178a565b60035482908110610e725760405162461bcd60e51b815260040161057590611edd565b600060038481548110610e8757610e87611f12565b60009182526020909120600590910201600481015490915060ff16610eee5760405162461bcd60e51b815260206004820152601960248201527f50617953747265616d3a20616c726561647920706175736564000000000000006044820152606401610575565b610ef7846117be565b60048101805460ff1916905560405184907fc1e14ec692cfc1a89cae539cb884be8d7cc39fd7a129fd73e0d59895fe48d2b890600090a250505050565b6060806000805b600454811015610f935760048181548110610f5857610f58611f12565b600091825260209091206003600490920201015460ff16610f815781610f7d81611fd6565b9250505b80610f8b81611fd6565b915050610f3b565b508067ffffffffffffffff811115610fad57610fad611fef565b604051908082528060200260200182016040528015610fd6578160200160208202803683370190505b5092508067ffffffffffffffff811115610ff257610ff2611fef565b60405190808252806020026020018201604052801561104457816020015b6040805160808101825260008082526020808301829052928201819052606082015282526000199092019101816110105790505b5091506000805b600454811015611144576004818154811061106857611068611f12565b600091825260209091206003600490920201015460ff16611132578085838151811061109657611096611f12565b602002602001018181525050600481815481106110b5576110b5611f12565b600091825260209182902060408051608081018252600490930290910180546001600160a01b0316835260018101549383019390935260028301549082015260039091015460ff1615156060820152845185908490811061111857611118611f12565b6020026020010181905250818061112e90611fd6565b9250505b8061113c81611fd6565b91505061104b565b5050509091565b6040805160a081018252600080825260208201819052918101829052606081018290526080810191909152600354829081106111995760405162461bcd60e51b815260040161057590611edd565b600383815481106111ac576111ac611f12565b60009182526020918290206040805160a081018252600590930290910180546001600160a01b039081168452600182015416938301939093526002830154908201526003820154606082015260049091015460ff1615156080820152915050919050565b6000918252602082815260408084206001600160a01b0393909316845291905290205460ff1690565b6040516370a0823160e01b81523060048201526000907f00000000000000000000000000000000000000000000000000000000000000006001600160a01b0316906370a0823190602401602060405180830381865afa1580156112a0573d6000803e3d6000fd5b505050506040513d601f19601f820116820180604052508101906112c49190612005565b905090565b60008082116113115760405162461bcd60e51b815260206004820152601460248201527350617953747265616d3a207a65726f207261746560601b6044820152606401610575565b50600480546040805160808101825233808252602080830187815242848601908152600060608601818152600189018a559089905294517f8a35acfbc15ff81a39ae7d344fd709f28e8600b4aa8c65c6b64bfe7fe36bd19b98880298890180546001600160a01b0319166001600160a01b0390921691909117905590517f8a35acfbc15ff81a39ae7d344fd709f28e8600b4aa8c65c6b64bfe7fe36bd19c880155517f8a35acfbc15ff81a39ae7d344fd709f28e8600b4aa8c65c6b64bfe7fe36bd19d87015591517f8a35acfbc15ff81a39ae7d344fd709f28e8600b4aa8c65c6b64bfe7fe36bd19e909501805460ff191695151595909517909455905184815291929183917f4d168c0d57406651a5fa34927c54a31dfee0e5fffd58fc4a7713827eb5386e43910160405180910390a3919050565b604080516080810182526000808252602082018190529181018290526060810191909152600454821061148c5760405162461bcd60e51b815260040161057590611f51565b6004828154811061149f5761149f611f12565b600091825260209182902060408051608081018252600490930290910180546001600160a01b0316835260018101549383019390935260028301549082015260039091015460ff161515606082015292915050565b60006114ff8161178a565b6127108211156115495760405162461bcd60e51b815260206004820152601560248201527450617953747265616d3a20746178203e203130302560581b6044820152606401610575565b600280549083905560408051828152602081018590527fa8ee157eb2a9aa895d74df4d2d3bc0ad165ff3162f8ec46a4ecf602dd5c48fda910160405180910390a1505050565b6000828152602081905260409020600101546115aa8161178a565b6109c08383611aa5565b6000805160206120588339815191526115cc8161178a565b60045482106115ed5760405162461bcd60e51b815260040161057590611f51565b60006004838154811061160257611602611f12565b60009182526020909120600490910201600381015490915060ff161561163a5760405162461bcd60e51b815260040161057590611f92565b60038101805460ff1916600117905560405183907f58995aa2d514aea4da03afdc1eaefba7d487ef5d974be983a686732a264aac3490600090a2505050565b6000805160206120588339815191526116918161178a565b600354829081106116b45760405162461bcd60e51b815260040161057590611edd565b6000600384815481106116c9576116c9611f12565b60009182526020909120600590910201600481015490915060ff16156117315760405162461bcd60e51b815260206004820152601960248201527f50617953747265616d3a20616c726561647920616374697665000000000000006044820152606401610575565b42600382015560048101805460ff1916600117905560405184907fa5667ab2e05e1400eb0f467aa916600d98f5a2a45a69f02eb41da7469c51ce7090600090a250505050565b6000611783828461201e565b9392505050565b6109988133611b10565b6002600154036117b757604051633ee5aeb560e01b815260040160405180910390fd5b6002600155565b6000600382815481106117d3576117d3611f12565b9060005260206000209060050201905060008160030154426117f59190611f3e565b90508060000361180457505050565b6000611814836002015483611777565b9050806000036118245750505050565b42836003018190555060008061183c83600254611b4d565b90925090508115611883576001850154611883906001600160a01b037f00000000000000000000000000000000000000000000000000000000000000008116911684611bc7565b8015611958576118dd6001600160a01b037f0000000000000000000000000000000000000000000000000000000000000000167f000000000000000000000000000000000000000000000000000000000000000083611bf8565b60405163b6b55f2560e01b8152600481018290527f00000000000000000000000000000000000000000000000000000000000000006001600160a01b03169063b6b55f2590602401600060405180830381600087803b15801561193f57600080fd5b505af1158015611953573d6000803e3d6000fd5b505050505b600185015460408051848152602081018490526001600160a01b039092169188917f13d23b66b80073e6fb9522c31eac92141f2ba60d122edde49609d5cb9383aae2910160405180910390a3505050505050565b60006119b88383611210565b611a36576000838152602081815260408083206001600160a01b03861684529091529020805460ff191660011790556119ee3390565b6001600160a01b0316826001600160a01b0316847f2f8788117e7eff1d82e926ec794901d17c78024a50270940304540a733656f0d60405160405180910390a4506001610549565b506000610549565b6040516001600160a01b0384811660248301528381166044830152606482018390526109c09186918216906323b872dd906084015b604051602081830303815290604052915060e01b6020820180516001600160e01b038381831617835250505050611c84565b6000611ab18383611210565b15611a36576000838152602081815260408083206001600160a01b0386168085529252808320805460ff1916905551339286917ff6391f5c32d9c69d2a47ea670b442974b53935d1edc7fd64eb21e047a839171b9190a4506001610549565b611b1a8282611210565b611b495760405163e2517d3f60e01b81526001600160a01b038216600482015260248101839052604401610575565b5050565b600080612710831115611b9b5760405162461bcd60e51b815260206004820152601660248201527553747265616d4d6174683a20746178203e203130302560501b6044820152606401610575565b612710611ba8848661201e565b611bb29190612035565b9050611bbe8185611f3e565b91509250929050565b6040516001600160a01b03838116602483015260448201839052610aaf91859182169063a9059cbb90606401611a73565b604080516001600160a01b038416602482015260448082018490528251808303909101815260649091019091526020810180516001600160e01b031663095ea7b360e01b179052611c498482611cf5565b6109c0576040516001600160a01b03848116602483015260006044830152611c7e91869182169063095ea7b390606401611a73565b6109c084825b600080602060008451602086016000885af180611ca7576040513d6000823e3d81fd5b50506000513d91508115611cbf578060011415611ccc565b6001600160a01b0384163b155b156109c057604051635274afe760e01b81526001600160a01b0385166004820152602401610575565b6000806000806020600086516020880160008a5af192503d91506000519050828015611d3a57508115611d2b5780600114611d3a565b6000866001600160a01b03163b115b9695505050505050565b600060208284031215611d5657600080fd5b81356001600160e01b03198116811461178357600080fd5b600060208284031215611d8057600080fd5b5035919050565b80356001600160a01b0381168114611d9e57600080fd5b919050565b60008060408385031215611db657600080fd5b82359150611dc660208401611d87565b90509250929050565b60008060408385031215611de257600080fd5b611deb83611d87565b946020939093013593505050565b604080825283519082018190526000906020906060840190828701845b82811015611e3257815184529284019290840190600101611e16565b5050508381038285015284518082528583019183019060005b81811015611e9a57611e8783855180516001600160a01b0316825260208082015190830152604080820151908301526060908101511515910152565b9284019260809290920191600101611e4b565b5090979650505050505050565b81516001600160a01b03168152602080830151908201526040808301519082015260608083015115159082015260808101610549565b6020808252818101527f50617953747265616d3a2073747265616d20646f6573206e6f74206578697374604082015260600190565b634e487b7160e01b600052603260045260246000fd5b634e487b7160e01b600052601160045260246000fd5b8181038181111561054957610549611f28565b60208082526021908201527f50617953747265616d3a207265717565737420646f6573206e6f7420657869736040820152601d60fa1b606082015260800190565b60208082526024908201527f50617953747265616d3a207265717565737420616c72656164792070726f63656040820152631cdcd95960e21b606082015260800190565b600060018201611fe857611fe8611f28565b5060010190565b634e487b7160e01b600052604160045260246000fd5b60006020828403121561201757600080fd5b5051919050565b808202811582820484141761054957610549611f28565b60008261205257634e487b7160e01b600052601260045260246000fd5b50049056fefd70517941c75212b0f9013e45c47a37d6d983c5304288c7af285f2ea40cbba7a2646970667358221220663ee15e2d62b8334015ab7f90e2fed56ad12248528924adfbda071973f7eab464736f6c63430008140033",
  "linkReferences": {},
  "deployedLinkReferences": {}
}