{
  "_format": "hh-sol-artifact-1",
  "contractName": "ZapPay",
  "sourceName": "contracts/ZapPay.sol",
  "abi": [
    {
      "inputs": [],
      "stateMutability": "nonpayable",
      "type": "constructor"
    },
    {
      "anonymous": false,
      "inputs": [
        {
          "indexed": true,
          "internalType": "address",
          "name": "user",
          "type": "address"
        },
        {
          "indexed": false,
          "internalType": "uint256",
          "name": "amount",
          "type": "uint256"
        }
      ],
      "name": "Deposited",
      "type": "event"
    },
    {
      "anonymous": false,
      "inputs": [
        {
          "indexed": true,
          "internalType": "address",
          "name": "from",
          "type": "address"
        },
        {
          "indexed": true,
          "internalType": "address",
          "name": "to",
          "type": "address"
        },
        {
          "indexed": false,
          "internalType": "uint256",
          "name": "amount",
          "type": "uint256"
        },
        {
          "indexed": false,
          "internalType": "uint256",
          "name": "timestamp",
          "type": "uint256"
        }
      ],
      "name": "TransferDone",
      "type": "event"
    },
    {
      "anonymous": false,
      "inputs": [
        {
          "indexed": true,
          "internalType": "address",
          "name": "user",
          "type": "address"
        },
        {
          "indexed": false,
          "internalType": "uint256",
          "name": "amount",
          "type": "uint256"
        }
      ],
      "name": "Withdrawn",
      "type": "event"
    },
    {
      "inputs": [
        {
          "internalType": "address",
          "name": "",
          "type": "address"
        }
      ],
      "name": "balances",
      "outputs": [
        {
          "internalType": "uint256",
          "name": "",
          "type": "uint256"
        }
      ],
      "stateMutability": "view",
      "type": "function"
    },
    {
      "inputs": [],
      "name": "dailyLimit",
      "outputs": [
        {
          "internalType": "uint256",
          "name": "",
          "type": "uint256"
        }
      ],
      "stateMutability": "view",
      "type": "function"
    },
    {
      "inputs": [
        {
          "internalType": "address",
          "name": "",
          "type": "address"
        }
      ],
      "name": "dailyTransferred",
      "outputs": [
        {
          "internalType": "uint256",
          "name": "",
          "type": "uint256"
        }
      ],
      "stateMutability": "view",
      "type": "function"
    },
    {
      "inputs": [],
      "name": "deposit",
      "outputs": [],
      "stateMutability": "payable",
      "type": "function"
    },
    {
      "inputs": [
        {
          "internalType": "address",
          "name": "user",
          "type": "address"
        }
      ],
      "name": "getBalance",
      "outputs": [
        {
          "internalType": "uint256",
          "name": "",
          "type": "uint256"
        }
      ],
      "stateMutability": "view",
      "type": "function"
    },
    {
      "inputs": [],
      "name": "getContractBalance",
      "outputs": [
        {
          "internalType": "uint256",
          "name": "",
          "type": "uint256"
        }
      ],
      "stateMutability": "view",
      "type": "function"
    },
    {
      "inputs": [
        {
          "internalType": "address",
          "name": "user",
          "type": "address"
        }
      ],
      "name": "getRemainingDailyLimit",
      "outputs": [
        {
          "internalType": "uint256",
          "name": "",
          "type": "uint256"
        }
      ],
      "stateMutability": "view",
      "type": "function"
    },
    {
      "inputs": [
        {
          "internalType": "address",
          "name": "",
          "type": "address"
        }
      ],
      "name": "lastTransferDay",
      "outputs": [
        {
          "internalType": "uint256",
          "name": "",
          "type": "uint256"
        }
      ],
      "stateMutability": "view",
      "type": "function"
    },
    {
      "inputs": [],
      "name": "owner",
      "outputs": [
        {
          "internalType": "address",
          "name": "",
          "type": "address"
        }
      ],
      "stateMutability": "view",
      "type": "function"
    },
    {
      "inputs": [
        {
          "internalType": "uint256",
          "name": "newLimit",
          "type": "uint256"
        }
      ],
      "name": "setDailyLimit",
      "outputs": [],
      "stateMutability": "nonpayable",
      "type": "function"
    },
    {
      "inputs": [
        {
          "internalType": "address",
          "name": "to",
          "type": "address"
        },
        {
          "internalType": "uint256",
          "name": "amount",
          "type": "uint256"
        }
      ],
      "name": "transfer",
      "outputs": [
        {
          "internalType": "bool",
          "name": "",
          "type": "bool"
        }
      ],
      "stateMutability": "nonpayable",
      "type": "function"
    },
    {
      "inputs": [
        {
          "internalType": "uint256",
          "name": "amount",
          "type": "uint256"
        }
      ],
      "name": "withdraw",
      "outputs": [],
      "stateMutability": "nonpayable",
      "type": "function"
    }
  ],
  "bytecode": "0x6080604052683635c9adc5dea0000060015534801561001d57600080fd5b50336000806101000a81548173ffffffffffffffffffffffffffffffffffffffff021916908373ffffffffffffffffffffffffffffffffffffffff1602179055506112108061006d6000396000f3fe6080604052600436106100a75760003560e01c80639abb68e8116100645780639abb68e8146101d0578063a9059cbb1461020d578063b20d30a91461024a578063d0e30db014610273578063ec37d2591461027d578063f8b2cb4f146102ba576100a7565b806327e235e3146100ac5780632e1a7d4d146100e957806367eeba0c146101125780636f9fb98a1461013d57806379036e90146101685780638da5cb5b146101a5575b600080fd5b3480156100b857600080fd5b506100d360048036038101906100ce9190610c5b565b6102f7565b6040516100e09190610ca1565b60405180910390f35b3480156100f557600080fd5b50610110600480360381019061010b9190610ce8565b61030f565b005b34801561011e57600080fd5b50610127610481565b6040516101349190610ca1565b60405180910390f35b34801561014957600080fd5b50610152610487565b60405161015f9190610ca1565b60405180910390f35b34801561017457600080fd5b5061018f600480360381019061018a9190610c5b565b61048f565b60405161019c9190610ca1565b60405180910390f35b3480156101b157600080fd5b506101ba6104a7565b6040516101c79190610d24565b60405180910390f35b3480156101dc57600080fd5b506101f760048036038101906101f29190610c5b565b6104cb565b6040516102049190610ca1565b60405180910390f35b34801561021957600080fd5b50610234600480360381019061022f9190610d3f565b6104e3565b6040516102419190610d9a565b60405180910390f35b34801561025657600080fd5b50610271600480360381019061026c9190610ce8565b610972565b005b61027b610a0a565b005b34801561028957600080fd5b506102a4600480360381019061029f9190610c5b565b610af3565b6040516102b19190610ca1565b60405180910390f35b3480156102c657600080fd5b506102e160048036038101906102dc9190610c5b565b610baf565b6040516102ee9190610ca1565b60405180910390f35b60026020528060005260406000206000915090505481565b8080600260003373ffffffffffffffffffffffffffffffffffffffff1673ffffffffffffffffffffffffffffffffffffffff168152602001908152602001600020541015610392576040517f08c379a000000000000000000000000000000000000000000000000000000000815260040161038990610e12565b60405180910390fd5b81600260003373ffffffffffffffffffffffffffffffffffffffff1673ffffffffffffffffffffffffffffffffffffffff16815260200190815260200160002060008282546103e19190610e61565b925050819055503373ffffffffffffffffffffffffffffffffffffffff166108fc839081150290604051600060405180830381858888f1935050505015801561042e573d6000803e3d6000fd5b503373ffffffffffffffffffffffffffffffffffffffff167f7084f5476618d8e60b11ef0d7d3f06914655adb8793e28ff7f018d4c76d505d5836040516104759190610ca1565b60405180910390a25050565b60015481565b600047905090565b60036020528060005260406000206000915090505481565b60008054906101000a900473ffffffffffffffffffffffffffffffffffffffff1681565b60046020528060005260406000206000915090505481565b60008180600260003373ffffffffffffffffffffffffffffffffffffffff1673ffffffffffffffffffffffffffffffffffffffff168152602001908152602001600020541015610568576040517f08c379a000000000000000000000000000000000000000000000000000000000815260040161055f90610e12565b60405180910390fd5b826000620151804261057a9190610ec4565b905080600460003373ffffffffffffffffffffffffffffffffffffffff1673ffffffffffffffffffffffffffffffffffffffff16815260200190815260200160002054101561064d576000600360003373ffffffffffffffffffffffffffffffffffffffff1673ffffffffffffffffffffffffffffffffffffffff1681526020019081526020016000208190555080600460003373ffffffffffffffffffffffffffffffffffffffff1673ffffffffffffffffffffffffffffffffffffffff168152602001908152602001600020819055505b60015482600360003373ffffffffffffffffffffffffffffffffffffffff1673ffffffffffffffffffffffffffffffffffffffff1681526020019081526020016000205461069b9190610ef5565b11156106dc576040517f08c379a00000000000000000000000000000000000000000000000000000000081526004016106d390610f75565b60405180910390fd5b600073ffffffffffffffffffffffffffffffffffffffff168673ffffffffffffffffffffffffffffffffffffffff160361074b576040517f08c379a000000000000000000000000000000000000000000000000000000000815260040161074290610fe1565b60405180910390fd5b3373ffffffffffffffffffffffffffffffffffffffff168673ffffffffffffffffffffffffffffffffffffffff16036107b9576040517f08c379a00000000000000000000000000000000000000000000000000000000081526004016107b09061104d565b60405180910390fd5b600085116107fc576040517f08c379a00000000000000000000000000000000000000000000000000000000081526004016107f3906110b9565b60405180910390fd5b84600260003373ffffffffffffffffffffffffffffffffffffffff1673ffffffffffffffffffffffffffffffffffffffff168152602001908152602001600020600082825461084b9190610e61565b9250508190555084600260008873ffffffffffffffffffffffffffffffffffffffff1673ffffffffffffffffffffffffffffffffffffffff16815260200190815260200160002060008282546108a19190610ef5565b9250508190555084600360003373ffffffffffffffffffffffffffffffffffffffff1673ffffffffffffffffffffffffffffffffffffffff16815260200190815260200160002060008282546108f79190610ef5565b925050819055508573ffffffffffffffffffffffffffffffffffffffff163373ffffffffffffffffffffffffffffffffffffffff167fb948593cc5e15bfe119f00947ccb90347cbbe1571c158a3ec7851f592f0b6602874260405161095d9291906110d9565b60405180910390a36001935050505092915050565b60008054906101000a900473ffffffffffffffffffffffffffffffffffffffff1673ffffffffffffffffffffffffffffffffffffffff163373ffffffffffffffffffffffffffffffffffffffff1614610a00576040517f08c379a00000000000000000000000000000000000000000000000000000000081526004016109f79061114e565b60405180910390fd5b8060018190555050565b60003411610a4d576040517f08c379a0000000000000000000000000000000000000000000000000000000008152600401610a44906111ba565b60405180910390fd5b34600260003373ffffffffffffffffffffffffffffffffffffffff1673ffffffffffffffffffffffffffffffffffffffff1681526020019081526020016000206000828254610a9c9190610ef5565b925050819055503373ffffffffffffffffffffffffffffffffffffffff167f2da466a7b24304f47e87fa2e1e5a81b9831ce54fec19055ce277ca2f39ba42c434604051610ae99190610ca1565b60405180910390a2565b6000806201518042610b059190610ec4565b905080600460008573ffffffffffffffffffffffffffffffffffffffff1673ffffffffffffffffffffffffffffffffffffffff168152602001908152602001600020541015610b5957600154915050610baa565b600360008473ffffffffffffffffffffffffffffffffffffffff1673ffffffffffffffffffffffffffffffffffffffff16815260200190815260200160002054600154610ba69190610e61565b9150505b919050565b6000600260008373ffffffffffffffffffffffffffffffffffffffff1673ffffffffffffffffffffffffffffffffffffffff168152602001908152602001600020549050919050565b600080fd5b600073ffffffffffffffffffffffffffffffffffffffff82169050919050565b6000610c2882610bfd565b9050919050565b610c3881610c1d565b8114610c4357600080fd5b50565b600081359050610c5581610c2f565b92915050565b600060208284031215610c7157610c70610bf8565b5b6000610c7f84828501610c46565b91505092915050565b6000819050919050565b610c9b81610c88565b82525050565b6000602082019050610cb66000830184610c92565b92915050565b610cc581610c88565b8114610cd057600080fd5b50565b600081359050610ce281610cbc565b92915050565b600060208284031215610cfe57610cfd610bf8565b5b6000610d0c84828501610cd3565b91505092915050565b610d1e81610c1d565b82525050565b6000602082019050610d396000830184610d15565b92915050565b60008060408385031215610d5657610d55610bf8565b5b6000610d6485828601610c46565b9250506020610d7585828601610cd3565b9150509250929050565b60008115159050919050565b610d9481610d7f565b82525050565b6000602082019050610daf6000830184610d8b565b92915050565b600082825260208201905092915050565b7f496e73756666696369656e742062616c616e6365000000000000000000000000600082015250565b6000610dfc601483610db5565b9150610e0782610dc6565b602082019050919050565b60006020820190508181036000830152610e2b81610def565b9050919050565b7f4e487b7100000000000000000000000000000000000000000000000000000000600052601160045260246000fd5b6000610e6c82610c88565b9150610e7783610c88565b9250828203905081811115610e8f57610e8e610e32565b5b92915050565b7f4e487b7100000000000000000000000000000000000000000000000000000000600052601260045260246000fd5b6000610ecf82610c88565b9150610eda83610c88565b925082610eea57610ee9610e95565b5b828204905092915050565b6000610f0082610c88565b9150610f0b83610c88565b9250828201905080821115610f2357610f22610e32565b5b92915050565b7f4461696c79206c696d6974206578636565646564000000000000000000000000600082015250565b6000610f5f601483610db5565b9150610f6a82610f29565b602082019050919050565b60006020820190508181036000830152610f8e81610f52565b9050919050565b7f496e76616c696420726563697069656e74000000000000000000000000000000600082015250565b6000610fcb601183610db5565b9150610fd682610f95565b602082019050919050565b60006020820190508181036000830152610ffa81610fbe565b9050919050565b7f43616e6e6f742073656e6420746f20796f757273656c66000000000000000000600082015250565b6000611037601783610db5565b915061104282611001565b602082019050919050565b600060208201905081810360008301526110668161102a565b9050919050565b7f416d6f756e74206d7573742062652067726561746572207468616e2030000000600082015250565b60006110a3601d83610db5565b91506110ae8261106d565b602082019050919050565b600060208201905081810360008301526110d281611096565b9050919050565b60006040820190506110ee6000830185610c92565b6110fb6020830184610c92565b9392505050565b7f4e6f74206f776e65720000000000000000000000000000000000000000000000600082015250565b6000611138600983610db5565b915061114382611102565b602082019050919050565b600060208201905081810360008301526111678161112b565b9050919050565b7f4d757374206465706f736974206d6f7265207468616e20300000000000000000600082015250565b60006111a4601883610db5565b91506111af8261116e565b602082019050919050565b600060208201905081810360008301526111d381611197565b905091905056fea26469706673582212208eb7114ada28ae664b55e09c5a8d94398642f9d2b8e97efe63778e0c9469e6c364736f6c63430008140033",
  "linkReferences": {},
  "deployedLinkReferences": {}
}